:1000000001308A006E2900000A108A100A11820746
:1000100028340C34013406340A108A100A1182077D
:100020000C34523465346134643479342E342E34D3
:100030002E340A3400340A108A100A11820754340C
:10004000653473347434653400342430840083138D
:100050000008031939280330F800F701F70B2E28A0
:10006000F80B2D28E330F700F70B34280000800B45
:100070002B2808002B183E2885113F28851583164C
:1000800085118312AB1846280512472805168316DA
:10009000051283122B194E2806104F2806148316BA
:1000A00006108312AB19562886105728861483161B
:1000B0008610000083120514831605105F2860283F
:1000C0006128831205108316051083120800AC0105
:1000D000831685150030831285190130AC04831610
:1000E000051600308312051A0130F7000310F70DD2
:1000F0007708AC048316061400308312061801300A
:10010000F700F70DF70DFC30F7057708AC04831600
:1001100086140030831286180130F700F70DF70DB2
:10012000F70DF830F7057708AC042C08F800080044
:10013000831605108510051183128510831685100E
:1001400085150516061486148312051583160511E8
:100150000000831205148316051000008312672027
:100160007808AB00051083160510000083120514F3
:1001700083160510BB280000831267207808AA00A8
:1001800005108316051085110512061086108312BE
:100190002B0EF700F030F70577082A04F8007808EE
:1001A000AA00AA1FD5288316A028A808031DDA28AC
:1001B0008510DB2885148316851000008312051135
:1001C0008316051100008312051083160510831293
:1001D000290EAA000F30AA052A08AB003A202908E8
:1001E0000F39AA00AB003A200800831685110512CA
:1001F00006108610051085100511831285108316D0
:1002000085108312051183160511831205108316BC
:1002100005100F308312A40025200130A20022080F
:10022000033C031C1B290330AB003A200530A4001B
:100230002520A20A0F290230AB003A200530A40085
:100240002520A2012208033C031C2F292208042098
:10025000A300A8012308A9009820A20A22297D2929
:10026000250B332936294030A6003729A601013055
:100270002402A60726088038A700A8012708A9009D
:10028000982008002308073A031950290B3A03194C
:100290005529063A03195D29023A03196329682989
:1002A0000130A400A50030216D29A8010130A9006A
:1002B00098200230A40025206D290130A4000230CE
:1002C000A50030216D29A8011030A90098206D29C2
:1002D0000130A8002308A9009820080003081F394E
:1002E00083004D3083169900A63098009030831219
:1002F000980007309F008313F528A20122080C20E4
:10030000003803198729A20AA30042217E29A201ED
:1003100022081B20A20AF700A30042210530220276
:10032000031D88298C1E92291A08A100A201220807
:100330001B20A20AF700A300422105302202031D60
:06034000972987296300E4
:02400E00223F4F
:00000001FF
;PIC16F628A
;CRC=4E89  CREATED="20-nov-18 20:47"
