:1000000002308A00022A00000A108A100A118207B0
:1000100028340C34013406340A108A100A1182077D
:100020000C34523465346134643479342E342E34D3
:100030002E340A3400340A108A100A1182070C3454
:100040004C3469346734613472342034713475341B
:100050006134723474346F3420340A3400340A103A
:100060008A100A1182070C344434653473346C34BA
:1000700069346734613472342034713475346134D6
:10008000723474346F3420340A3400340A108A1005
:100090000A1182070C344C34693467346134723489
:1000A0002034733461346C34613420340A340034C5
:1000B0000A108A100A1182070C34443465347334F0
:1000C0006C3469346734613472342034733461348D
:1000D0006C34613420340A3400340A108A100A1156
:1000E00082070C344C346934673461347234203400
:1000F0007434753464346F3420340A3400340A1094
:100100008A100A1182070C344434653473346C3419
:10011000693467346134723420347434753464342F
:100120006F3420340A3400342430840083130008F0
:100130000319A8280330F800F701F70B9D28F80BE6
:100140009C28E330F700F70BA3280000800B9A28C7
:1001500008002B18AD280612AE28061683160612C4
:100160008312AB18B5288612B62886168316861217
:1001700083122B19BD280613BE28061783160613F3
:100180008312AB19C5288613C628861783168613D3
:1001900000008312061483160610CE28CF28D0281C
:1001A000831206108316061083120800AC01831612
:1001B000061600308312061A0130AC048316861628
:1001C00000308312861A0130F7000310F70D77080C
:1001D000AC048316061700308312061B0130F700AB
:1001E000F70DF70DFC30F7057708AC04831686177A
:1001F00000308312861B0130F700F70DF70DF70D65
:10020000F830F7057708AC042C08F80008008316CE
:100210000610051006118312051083160510061628
:100220008616061786178312061583160611000018
:10023000831206148316061000008312D620780855
:10024000AB000610831606100000831206148316F6
:1002500006102A2900008312D6207808AA0006106A
:1002600083160610061286120613861383122B0EAF
:10027000F700F030F70577082A04F8007808AA009C
:10028000AA1F442983160F29A808031D4929051010
:100290004A290514831605100000831206118316DF
:1002A0000611000083120610831606108312290E11
:1002B000AA000F30AA052A08AB00A92029080F3987
:1002C000AA00AB00A92008008316061286120613A6
:1002D00086130610051006118312051083160510EB
:1002E0008312061183160611831206108316061058
:1002F0000F308312A40094200130A2002208033C96
:10030000031C8A290330AB00A9200530A4009420E7
:10031000A20A7E290230AB00A9200530A400942057
:10032000A2012208033C031C9E2922080420A300EA
:10033000A8012308A9000721A20A91290D2A250B4B
:10034000A229A5294030A600A629A6010130240231
:10035000A60726088038A700A8012708A9000721BA
:1003600008002308073A0319BF290B3A0319C429C7
:10037000063A0319CC29023A0319D229D7290130A8
:10038000A400A5009F21DC29A8010130A9000721B4
:100390000230A4009420DC290130A4000230A50022
:1003A0009F21DC29A8011030A9000721DC29013098
:1003B000A8002308A90007210800831686148312C9
:1003C0008618E0290830F700A201F717F529F7137E
:1003D000F529031086180314A20C7717F529771353
:1003E000F70BE9292208F800012A6130F71B1A30BF
:1003F000F800F80BF929FC29F71BE729771BEF29EF
:10040000E929202A03081F398300831686118312E5
:10041000861507309F0083136429A20122080C204F
:1004200000380319172AA20AA300B1210E2A831645
:100430000511831205118316851183128511DD299B
:100440007808A1002108613A0319362A033A0319F2
:10045000462A013A0319562A073A0319662A013A2D
:100460000319762A033A03198A2A8A2AA201220842
:100470001B20A20AF700A300B1210F302202031DA6
:10048000372A83160511831205159D2AA201220819
:100490002F20A20AF700A300B12112302202031D6F
:1004A000472A83160511831205119D2AA2012208ED
:1004B0004620A20AF700A300B1210D302202031D3D
:1004C000572A83168511831285159D2AA2012208B9
:1004D0005820A20AF700A300B12110302202031D08
:1004E000672A83168511831285119D2AA20122088D
:1004F0006D20A20AF700A300B1210D302202031DD6
:10050000772A831605118312051583168511831228
:1005100085159D2AA20122087F20A20AF700A300C8
:10052000B12110302202031D8B2A8316051183127C
:0E053000051183168511831285111F2A6300A1
:02400E00623F0F
:00000001FF
;PIC16F628A
;CRC=E51E  CREATED="23-nov-18 20:36"
