:1000000001308A005F2900000A108A100A11820755
:1000100028340C34013406340A108A100A1182077D
:1000200054346534733474346534003423308400BC
:100030008313000803192A280330F800F701F70B8F
:100040001F28F80B1E28E330F700F70B25280000C7
:10005000800B1C2808002A182F28861130288615A6
:10006000831686118312AA18372806123828061616
:100070008316061283122A193F28861240288616F4
:10008000831686128312AA194728061348280617D2
:1000900083160613000083120614831606105028D8
:1000A0005128522883120610831606108312080066
:1000B000AB01831686150030831286190130AB041C
:1000C0008316061600308312061A0130F70003105B
:1000D000F70D7708AB048316861600308312861A54
:1000E0000130F700F70DF70DFC30F7057708AB048A
:1000F0008316061700308312061B0130F700F70D38
:10010000F70DF70DF830F7057708AB042B08F8006A
:1001100008008316061086100611831286108316B7
:100120008610861506168616061783120615831680
:1001300006110000831206148316061000008312B5
:1001400058207808AA0006108316061000008312B3
:10015000061483160610AC28000083125820780875
:10016000A9000610831606108611061286120613C1
:1001700083122A0EF700F030F70577082904F800FB
:100180007808A900A91FC62883169128A708031D6F
:10019000CB288610CC288614831686100000831284
:1001A000061183160611000083120610831606102E
:1001B0008312280EA9000F30A9052908AA002B20B8
:1001C00028080F39A900AA002B20080083168611E1
:1001D0000612861206130610861006118312861068
:1001E00083168610831206118316061183120610D9
:1001F000831606100F308312A30016200130A100D1
:100200002108033C031C0C290330AA002B200530D5
:10021000A3001620A10A00290230AA002B200530D5
:10022000A3001620A1012108033C031C202921085A
:100230000420A200A7012208A8008920A10A1329EE
:100240006629240B242927294030A5002829A50147
:1002500001302302A50725088038A600A70126083B
:10026000A800892008002208073A031941290B3AFF
:1002700003194629063A03194E29023A031954294B
:1002800059290130A300A40021215E29A7010130D2
:10029000A80089200230A30016205E290130A300A7
:1002A0000230A40021215E29A7011030A800892076
:1002B0005E290130A7002208A80089206D290308C3
:1002C0001F39830007309F008313E628A10121080E
:1002D0000C20A10AF700A200332905302102031DDA
:1002E000672983160510831205100430A100FA3027
:1002F000A3001620A10B772983160510831205147D
:100300000430A100FA30A3001620A10B822966292F
:02031000630088
:02400E00223F4F
:00000001FF
;PIC16F628A
;CRC=19C4  CREATED="16-nov-18 20:41"
